:020000040800F2
:1000000098060020A1010008210C0008230C00081C
:10001000270C00082B0C00082F0C00080000000023
:10002000000000000000000000000000330C000889
:10003000350C000800000000370C0008390C0008DF
:10004000BB010008BB010008BB010008BB010008A0
:10005000BB010008BB010008BB010008BB01000890
:10006000BB010008BB010008BB010008BB01000880
:10007000BB010008BB010008BB010008BB01000870
:10008000BB010008BB010008BB010008BB01000860
:10009000BB010008BB010008BB010008BB01000850
:1000A000BB010008BB010008BB010008BB01000840
:1000B000BB010008BB010008BB010008BB01000830
:1000C000BB010008BB010008BB010008BB01000820
:1000D000BB010008BB010008BB010008BB01000810
:1000E000BB010008BB010008BB01000800000000C4
:1000F0000000000000000000000000000000000000
:10010000BB01000800F002F800F03AF80AA090E8FD
:10011000000C82448344AAF10107DA4501D100F0C2
:100120002FF8AFF2090EBAE80F0013F0010F18BF55
:10013000FB1A43F001031847F411000014120000E9
:10014000103A24BF78C878C1FAD8520724BF30C803
:1001500030C144BF04680C607047000000230024D5
:1001600000250026103A28BF78C1FBD8520728BFC7
:1001700030C148BF0B6070471FB51FBD10B510BD23
:1001800001F09DF81146FFF7F7FF00F086FD01F042
:10019000BBF803B4FFF7F2FF03BC01F0BFF80000A7
:1001A0000948804709480047FEE7FEE7FEE7FEE70B
:1001B000FEE7FEE7FEE7FEE7FEE7FEE70448054947
:1001C000054A064B70470000A3020008050100081D
:1001D0009800002098060020980200209802002035
:1001E0000CB50020019000906848006840F4803011
:1001F0006649086000BF6548006800F40030009060
:100200000198401C0190009820B90198A0F57F4109
:10021000FF39F0D15D48006810F4003F02D00120A2
:10022000009001E0002000900098012834D1574848
:10023000406856494860084640684860084640683B
:1002400040F48060486008464068514908404F4982
:100250004860084640684F4908434C494860084692
:10026000006840F08070086000BF4848006810F0E7
:10027000007FFAD04548406820F0030043494860B9
:100280000846406840F00200486000BF3F484068B0
:1002900000F00C000828F9D10CBD10B5FFF7A0FF45
:1002A00010BD10B53948006840F0010037490860BA
:1002B00008464068384908403449486008460068A4
:1002C00036490840314908600846006820F480201B
:1002D000086008464068324908402C4948604FF49D
:1002E0001F008860FFF7D9FF10BD70B50021002006
:1002F000002200230024254D6D6805F00C0121B17A
:10030000042906D008292FD107E0264D264E356056
:100310002EE0264D244E35602AE01C4D6D6805F414
:1003200070101A4D6D6805F00062D50EC5EB051210
:1003300002EB9045A81C154D6D6805F4803323B978
:100340001B4D4543184E35600DE0104D6D6815F49A
:10035000003F04D0174D4543134E356003E0134D65
:100360004543114E356003E00E4D0F4E356000BF22
:1003700000BF064D6D6805F0F00109090E4D6C5C7B
:10038000094D2D68E540084E356070BD00100240F3
:10039000FFFFC0F7000007080000FFE8FFFFF6FEC0
:1003A000FFFF00F700127A0000000020001BB700DA
:1003B00000093D00808D5B000400002010B504465C
:1003C000E748844208D10121042000F0A1FB00216C
:1003D000042000F09DFB46E0E248844208D1012160
:1003E000082000F095FB0021082000F091FB3AE086
:1003F000DD48844208D10121102000F089FB002152
:10040000102000F085FB2EE0D848844208D101215D
:10041000202000F07DFB0021202000F079FB22E06D
:10042000D348844208D10121402000F071FB002113
:10043000402000F06DFB16E0CE48844208D1012137
:10044000802000F065FB0021802000F061FB0AE0C5
:10045000C948844207D10121801500F059FB0021D1
:10046000A01500F055FB10BD10B50121084600F0A5
:100470004FFB0021012000F04BFB10BD2DE9F041A6
:10048000024600250026002000230024002791F8C2
:1004900003C00CF00F0591F803C01CF0100F03D03F
:1004A00091F802C04CEA050591F800C0BCF1000FBC
:1004B00031D0146800202BE04FF0010C0CFA00F34F
:1004C000B1F800C00CEA03069E4220D183004FF031
:1004D0000F0C0CFA03F7BC4305FA03FC4CEA0404C6
:1004E00091F803C0BCF1280F06D14FF0010C0CFAB3
:1004F00000FCC2F814C00AE091F803C0BCF1480F38
:1005000005D14FF0010C0CFA00FCC2F810C0401CE1
:100510000828D1D31460B1F800C0BCF1FF0F34D962
:10052000546800202EE000F1080C4FF0010808FA92
:100530000CF3B1F800C00CEA03069E4221D18300FF
:100540004FF00F0C0CFA03F7BC4305FA03FC4CEA1E
:10055000040491F803C0BCF1280F05D100F1080C88
:1005600008FA0CF8C2F8148091F803C0BCF1480FE7
:1005700007D100F1080C4FF0010808FA0CF8C2F896
:100580001080401C0828CED35460BDE8F0814FF69F
:10059000FF710180022181700421C1707047024601
:1005A000002093680B4201D0012000E0002070473A
:1005B0000146886880B2704702460020D3680B422B
:1005C00001D0012000E0002070470146C86880B2D9
:1005D000704701617047416170470AB1016100E0F5
:1005E00041617047C16070474FF480320A438261B5
:1005F00081618261826982697047024600205F4B97
:1006000018684FF68073184040EA021008435B4BAD
:100610001860704731B1594A126842F08002574B56
:100620001A6005E0554A126822F08002534B1A60A6
:100630007047F0B50A46002300240021002500F091
:100640000046B6F1004F02D14C4EF16901E04B4E2D
:100650007168C0F3034583B200F44016B6F5401F3D
:1006600008D121F07061454E766826F07066434FE0
:100670007E6012E000F48016B6F5801F06D10326D6
:1006800006FA05F4A14341F0706106E0460D36011B
:1006900003FA06F6B14341F0706122B1460D36010E
:1006A00003FA06F6314300F00046B6F1004F02D1DE
:1006B000324EF16101E0314E7160F0BD10B50022A3
:1006C0008B071C0F0F2303FA04F204290EDA2B4BBD
:1006D0009B689343294CA36023469B688C07240F97
:1006E00000FA04F42343254CA3602FE008290EDA16
:1006F000224BDB689343214CE3602346DB688C0785
:10070000240F00FA04F423431C4CE3601EE00C2980
:100710000EDA1A4B1B699343184C236123461B695D
:100720008C07240F00FA04F42343144C23610DE0DA
:10073000124B5B699343114C636123465B698C07E1
:10074000240F00FA04F423430C4C636110BD0146EE
:1007500000200A4A506820F40000084350607047A7
:1007600000080140000C014000100140001401404D
:1007700000180140001C0140002001400000014021
:10078000F848006840F00100F649086008464068F3
:10079000F5490840F349486008460068F3490840B5
:1007A000F04908600846006820F480200860084688
:1007B0004068EF490840EB4948604FF41F008860EB
:1007C0007047E849096821F4A021E64A1160114602
:1007D00009680143116070470146002200234A1155
:1007E000012A02D1DF48036806E0022A02D1DD486F
:1007F000036A01E0DB48436A01F01F0201209040D8
:10080000184201D0012070470020FCE718B50020F5
:100810000090002406E03120FFF7DEFF0446009838
:10082000401C00900098A0F57F41FF3901D0002CBA
:10083000F1D03120FFF7D0FF08B1012018BD002012
:10084000FCE701460020C74A106820F0F80040EAA3
:10085000C1001060704730B1C249096841F0010120
:10086000C04A116005E0BF49096821F00101BD4A95
:100870001160704702460020BA4B5868BD4B1840C3
:1008800042EA01031843B74B5860704730B1B5498D
:10089000096841F08071B34A116005E0B149096807
:1008A00021F08071AF4A1160704701460020AD4AC7
:1008B000506820F00300084350607047A948406822
:1008C00000F00C00704701460020A64A506820F056
:1008D000F00008435060704701460020A14A50686C
:1008E00020F4E060084350607047014600209D4AB4
:1008F000506820F460500843506070479949496837
:1009000021F44001974A5160114649680143516002
:10091000704794494968984A1140924A516011467B
:1009200049680143516070478E49096A21F001010D
:100930008C4A11621146096A21F0040111621146C4
:10094000096A01431162704730B18649496A41F032
:100950000101844A516205E08249496A21F001019E
:10096000804A516270477F49096A21F440717D4A8B
:1009700011621146096A01431162704730B1794929
:10098000096A41F40041774A116205E07549096A34
:1009900021F40041734A11627047F0B50021002232
:1009A0000025002600246F4B5B6803F00C0121B189
:1009B000042905D008292AD105E0704B036029E0FD
:1009C0006F4B036026E0674B5B6803F47012654B66
:1009D0005B6803F00065EB0EC3EB031505EB924378
:1009E0009A1C604B5B6803F480361EB9654B534319
:1009F00003600BE05B4B5B6813F4003F03D0624B7A
:100A00005343036002E05E4B5343036002E05B4BE1
:100A1000036000BF00BF534B5B6803F0F00109099E
:100A20005A4B5C5C0368E34043604E4B5B6803F4E5
:100A3000E061090A564B5C5C4368E3408360494BC4
:100A40005B6803F46051C90A514B5C5C4368E34046
:100A5000C360444B5B6803F08053990E414B5B6865
:100A6000C3F381331944082929D2DFE801F00408CF
:100A70000C12161A2024C3685B0803611FE0C368C8
:100A80009B0803611BE00627C368B3FBF7F3036110
:100A900015E0C368DB08036111E0C3685B0803610C
:100AA0000DE00C27C368B3FBF7F3036107E0C368ED
:100AB000DB08036103E0C3681B09036100BF00BFDB
:100AC000F0BD29B1274A52690243264B5A6104E01E
:100AD000244A52698243234B5A61704729B1214A03
:100AE000926902431F4B9A6104E01E4A9269824355
:100AF0001C4B9A61704729B11A4AD2690243194BBB
:100B0000DA6104E0174AD2698243164BDA61704712
:100B100029B1144AD2680243124BDA6004E0114A48
:100B2000D26882430F4BDA60704729B10D4A1269CF
:100B300002430C4B1A6104E00A4A12698243094BD2
:100B40001A61704730B10749096A41F48031054A9A
:100B5000116205E00349096A21F48031014A1162FA
:100B600070470000001002400000FFE8FFFFF6FEA3
:100B7000FFFF00F7FFFFC2F7FF3FFFEF00127A0011
:100B8000001BB70000093D00808D5B0014000020B1
:100B90002400002030B12149096841F400211F4A96
:100BA000116005E01D49096821F400211B4A11600C
:100BB000704701460020194A506820F0E060084361
:100BC0005060704729B1154A527A0243134B5A724A
:100BD00004E0124A527A8243104B5A7270470F480F
:100BE000406A40F080700D494862704701460B48EA
:100BF0008068084201D0012070470020FCE70749C7
:100C0000887270470549496B21F00301034A51631B
:100C10001146496B014351637047000000100240C8
:100C2000704700BFFEE700BFFEE700BFFEE700BF62
:100C3000FEE77047704770477047000008B5012114
:100C40001020FFF74BFF4FF40050ADF800000320D9
:100C50008DF8020010208DF8030069464748FFF721
:100C60000DFC4FF400514548FFF7B5FC012104206D
:100C7000FFF734FF0320ADF800008DF802000420D8
:100C80008DF8030069463E48FFF7F8FB08BD0020D9
:100C900000E0401C7828FCD37047FFF7CFFF00F03E
:100CA00048F938A000F009FA00F01AFA3AA000F06A
:100CB00004FA01203C49087000F017FA5CE00121B9
:100CC0002F48FFF76CFC002835D1FFF7E0FF01212A
:100CD0002B48FFF764FC00282DD100BF01212848D4
:100CE000FFF75DFC0028F9D03048007890B1002073
:100CF0002E4908704FF400512048FFF76CFC00F0BB
:100D0000EAF92BA000F0D9F900F0EAF92CA000F0E4
:100D1000D4F910E001202549087041031748FFF776
:100D200058FC00F0D8F929A000F0C7F900F0D8F974
:100D300029A000F0C2F902211148FFF730FCD8B910
:100D4000FFF7A5FF02210E48FFF729FCA0B900BF5D
:100D500002210B48FFF723FC0028F9D01248007845
:100D600028B100201049087000F0BFF904E001200C
:100D70000D49087000F0B9F9A1E70000001001402A
:100D800000080140284E676F2048756E6720437544
:100D90006F6E672900000000456C656374726F6EAA
:100DA000696373203A2D29002D0000202C000020BB
:100DB0004E676F2048756E672043756F6E67000041
:100DC0004C6564206973204F4E000000456C6563DC
:100DD00074726F6E696373004C6564206973204F91
:100DE00046460000002000E0401C9628FCD37047D7
:100DF00010B500240EE0C34800784010C1490870C7
:100E0000C148005D20B10846007840F080000870BD
:100E1000601CC4B2082CEEDB00F097F94E2000F005
:100E2000C8F9B848007800F0C4F900F0A8F910BD7E
:100E300010B5044614F0080F03D00120B249C87160
:100E400002E00020B049C87114F0040F03D0012063
:100E5000AD49887102E00020AB49887114F0020F9F
:100E600003D00120A849487102E00020A64948713A
:100E700014F0010F03D00120A349087102E0002003
:100E8000A14908710120A0498870FFF7B1FF002037
:100E90009D498870FFF7ACFF10BD10B501209A493D
:100EA000C871887148710871FFF7A2FF0020964948
:100EB0000870FFF79DFF012093494870FFF798FFE6
:100EC00000BF012090498870FFF792FF00F03DF9C4
:100ED0004F2000F06EF9012000F0AFF9044600F059
:100EE0004EF9002088498870FFF782FF012086496B
:100EF0008870FFF77DFF002083498870FFF778FF37
:100F000014F0080FDDD110BD10B50446FFF7C5FF82
:100F100000207D490870FFF76BFF00207A49487078
:100F2000FFF766FF2011FFF783FF2046FFF780FFE2
:100F300010BD70B5002413E0FFF754FFFFF752FF18
:100F4000FFF750FFFFF74EFFFFF74CFFFFF74AFF99
:100F5000FFF748FFFFF746FFFFF744FF601CC4B2EE
:100F6000642CE9DB00F0D2F8002404E0002066499C
:100F70000855601CC4B2082CF8DBFFF739FF0020CD
:100F800061490870FFF734FF00205F494870FFF7A0
:100F90002FFF0320FFF74CFF002419E0002513E08A
:100FA000FFF720FFFFF71EFFFFF71CFFFFF71AFFF9
:100FB000FFF718FFFFF716FFFFF714FFFFF712FF09
:100FC000FFF710FF681CC5B2282DE9DB601CC4B216
:100FD000642CE3DB0320FFF72BFF002413E0FFF773
:100FE00001FFFFF7FFFEFFF7FDFEFFF7FBFEFFF738
:100FF000F9FEFFF7F7FEFFF7F5FEFFF7F3FEFFF749
:10100000F1FE601CC4B20A2CE9DB0320FFF710FFDD
:10101000002413E0FFF7E6FEFFF7E4FEFFF7E2FE31
:10102000FFF7E0FEFFF7DEFEFFF7DCFEFFF7DAFE7C
:10103000FFF7D8FEFFF7D6FE601CC4B20A2CE9DB2E
:101040000220FFF7F5FE002413E0FFF7CBFEFFF7C9
:10105000C9FEFFF7C7FEFFF7C5FEFFF7C3FEFFF7A8
:10106000C1FEFFF7BFFEFFF7BDFEFFF7BBFE601C32
:10107000C4B20A2CE9DB2820FFF746FF0C20FFF75B
:1010800043FF0E20FFF740FF0120FFF73DFF70BD3B
:1010900010B50446FFF701FF01201B490870FFF758
:1010A000A7FE002018494870FFF7A2FE2011FFF7A5
:1010B000BFFE2046FFF7BCFE10BD10B5044607E09A
:1010C000207820B114F8010BFFF7E2FF00E000E008
:1010D000F6E700BF10BD10B50120FFF715FF10BDEA
:1010E00010B5C020FFF710FF10BD10B504461CB1AD
:1010F00001200549C87002E000200349C870FFF7CD
:1011000077FE10BD360000202E00002008B501211A
:101110000820FFF7E3FCC020ADF8000003208DF8A5
:10112000020014208DF8030069466248FFF7A6F913
:1011300080216048FFF74DFA40215E48FFF749FAE9
:10114000FFF750FEFFF74EFE08BD10B5802159484D
:10115000FFF73FFAFFF746FE40215648FFF739FAFE
:10116000FFF740FE80215348FFF735FAFFF73AFEBC
:1011700040215048FFF72FFAFFF734FE10BD10B59D
:1011800040214C48FFF727FAFFF72CFE8021494801
:10119000FFF721FAFFF726FE40214648FFF719FA2C
:1011A000FFF720FE80214348FFF713FAFFF71AFEEE
:1011B00010BD70B5044600261FE014F0800F04D067
:1011C00080213C48FFF705FA03E080213948FFF70A
:1011D00002FAFFF707FE40213648FFF7FAF9FFF75A
:1011E00001FEFFF7FFFD40213248FFF7F4F9FFF75A
:1011F000F9FD6006040E701CC6B2082EDDDB8021EE
:101200002C48FFF7E6F9FFF7EDFD40212948FFF7ED
:10121000E0F9FFF7E7FD80212648FFF7C0F908B1A4
:10122000012500E00025FFF7DDFD40212148FFF703
:10123000D2F9FFF7D7FD284670BD70B505460026E8
:101240001AE06006040EFFF7CDFD40211948FFF7B4
:10125000C0F9FFF7C7FD80211648FFF7A0F908B1D4
:1012600044F00104FFF7BEFD40211248FFF7B3F937
:10127000FFF7B8FD701CC6B2082EE2DB25B1802155
:101280000C48FFF7A6F903E080210A48FFF7A3F90D
:10129000FFF7A8FD40210748FFF79BF9FFF7A2FDE4
:1012A000FFF7A0FD40210348FFF795F9FFF79AFDEE
:1012B000204670BD000C014070477047704775466E
:1012C00000F028F8AE4605006946534620F00700B6
:1012D000854618B020B5FEF771FFBDE820404FF0FD
:1012E00000064FF000074FF000084FF0000B21F010
:1012F0000701AC46ACE8C009ACE8C009ACE8C009DD
:10130000ACE8C0098D4670470446AFF30080204624
:10131000FEF73FFF004870473800002001491820C1
:10132000ABBEFEE726000200704700004C13000829
:10133000000000203800000040010008841300086D
:1013400038000020600600005C01000800F36F0612
:101350000000000000000000010203040607080965
:101360000000000000000000010203040607080955
:101370000000000001020304000000000000000063
:041380000000000069
:0400000508000105E9
:00000001FF
