:1000000019C033C032C031C030C02FC02EC02DC087
:100010002CC02BC02AC029C028C027C026C025C09C
:1000200024C023C022C021C020C01FC01EC01DC0CC
:100030001CC01BC011241FBECFEFD2E0DEBFCDBF5E
:1000400011E0A0E0B1E0E2EEF2E002C005900D9216
:10005000A032B107D9F711E0A0E2B1E001C01D92D2
:10006000A932B107E1F732D13AC1CACF08959091D0
:100070002801E0E2F1E09695808181119068319647
:1000800081E0E832F807B9F7909328010BD18EE4AC
:10009000D9D080912801D6D0FCD00895882321F0B2
:1000A00081E08093230102C010922301E0DF0895D4
:1000B000282F83FF04C081E08093270102C01092A3
:1000C000270122FF04C081E08093260102C0109224
:1000D000260121FF04C081E08093250102C0109217
:1000E000250120FF04C081E08093240102C010920A
:1000F000240181E080932201BADF10922201B7DF50
:1001000008950F931F9311E0109327011093260178
:100110001093250110932401AADF10922001A7DF7C
:1001200010932101A4DF01E000932201A0DFBAD0E7
:100130008FE488D081E065D0182FABD010922201D7
:1001400096DF0093220193DF1092220190DF13FDCE
:10015000EBCF1F910F9108951F93182FD2DF81E0ED
:100160008093200184DF1092210181DF812F82950D
:100170008F709EDF812F9CDF1F910895CF93DF93B7
:10018000EC018881882319F02196E6DFFACFDF9110
:10019000CF9108951F93182FB4DF1092200167DFCD
:1001A0001092210164DF812F82958F7081DF812F72
:1001B0007FDF1F91089580ECEDDF089581E0EADF95
:1001C000089579D0E0E2F1E0119281E0E832F80799
:1001D000D9F74DDF109220014ADF1092210147DF4D
:1001E00083E066DF83E064DF83E062DF82E060DF7C
:1001F00088E2D0DF8CE0CEDF8EE0CCDF81E0CADFAA
:100200000895FF920F931F93F82E10E0000F2EDF3A
:100210003D982CDF3499016029DF3D9A27DF1F5F6D
:100220001830A1F7FF2011F03C9801C03C9A1EDF66
:100230003D981CDF1BDF3D9A19DF802F1F910F9126
:10024000FF9008950F931F93182F00E017FF02C02F
:100250003C9801C03C9A0ADF3D9808DF07DF3D9AD1
:1002600005DF0F5F083011F0110FF0CF3C98FEDE74
:100270003D98FCDE06B1FADE3D9AF8DE10E084E03F
:10028000169507958A95E1F7802F81701F910F9140
:1002900008953D9AEBDE3C9AE9DE3D98E7DE3C9816
:1002A000E5DE08953C98E2DE3D98E0DE3C9ADEDE35
:1002B0003D9ADCDE089587B18F7C87B988B18F7C49
:1002C00088B93C983D98D2DED1DE08957ADF80E08F
:1002D00091E054DF70DF81E191E050DFFFCFF894CF
:0202E000FFCF4E
:1002E200493243204C43442041546D6567613438A0
:1002F200004E676F2048756E672043756F6E67000A
:00000001FF
