:10027900493243204C4344204154383953353200E4
:0F0289004E676F2048756E672043756F6E670074
:1002B7001200037BFF7A02797912023112033B7B2A
:0A02C700FF7A02798912023180FEED
:01034000229A
:03020800E4F50812
:10020B00E4FFE510C313F51074082FF8E660034301
:10021B0010800FBF08EC1202EA7F4E1200EEAF10F7
:06022B001200EE0202FECB
:10000300E4FF1203401203401203401203401203A1
:10001300401203401203401203401203400FBF6417
:10002300E112032C7F087808E4F608DFFC12020BC8
:10003300120208E4F50912020B7F031201CCE4FF5C
:10004300E4FE120340120340120340120340120362
:10005300401203401203401203401203400EBE2815
:10006300E10FBF64DB7F031201CCE4FF12034012F4
:1000730003401203401203401203401203401203D1
:10008300401203401203400FBF0AE17F031201CC69
:10009300E4FF120340120340120340120340120311
:1000A300401203401203401203401203400FBF0AE1
:1000B300E17F021201CCE4FF12034012034012035A
:1000C3004012034012034012034012034012034044
:1000D3001203400FBF0AE17F281202987F0C12021D
:0B00E300987F0E1202987F0102029825
:1001CC00EF30E305750F018003E4F50FEF30E20526
:1001DC00750E018003E4F50EEF30E105750D01801D
:1001EC0003E4F50DEF30E005750C018003E4F50C2C
:0C01FC00750A0112020BE4F50A02020B66
:10013D00750F01750E01750D01750C0112020B1273
:10014D00020875090112020B750A0112020B120247
:10015D00EA7F4F1200EE7F011201858F151202FE0C
:10016D00E4F50A12020B750A0112020BE4F50A12EC
:07017D00020BE51520E3D1A0
:010184002258
:100298008F1112013DE4F50812020BE4F509120270
:0F02A8000BE511C4540FFF1201CCAF110201CCB2
:100256008F1412013D75080112020BE4F509120212
:100266000BE5147804A2E713D8FBFF1201CCAF14F8
:030276000201CCB6
:100231008B118A128913AB11AA12A9131202D16070
:10024100130513E5137002051214F91202D1FF12FE
:05025100025680E222CC
:050336007F01020298A6
:05033B007FC0020298E2
:0E031200EF6005750B018003E4F50B02020B92
:0A032C00D290D29112034002034068
:1002EA00D290120340D291120340C290120340C22C
:0402FA00910203402A
:1002FE00C291120340C290120340D291120340D217
:04030E009002034016
:0200EE008F166B
:1000F000E4F517E51630E704D2908002C2901203AF
:1001000040D291120340120340C291120340E516FF
:1001100025E0F5160517E517C3940840D6D29012CE
:100120000340D2911203403090057518018003E41A
:0C013000F518120340C291120340AF18F2
:01013C0022A0
:020185008F16D3
:10018700E4F517E51825E0F518120340D29112039C
:1001970040309003431801120340C29112034005F7
:1001A70017E517C3940840DBE5166004D290800278
:1001B700C290120340D291120340120340C291121F
:0401C7000340AF182A
:0101CB002211
:03000000020320D8
:0C032000787FE4F6D8FD7581190202B761
:1002D100BB010689828A83E0225002E722BBFE022B
:0902E100E32289828A83E493225E
:00000001FF
